:020000040800F2
:10000000400C002049010008F5210008751C00087B
:10001000012000084D160008F93500080000000016
:10002000000000000000000000000000712A00082D
:100030004F16000800000000CB280008D52F00084C
:100040006301000863010008630100086301000800
:1000500063010008630100086301000863010008F0
:1000600063010008630100086301000863010008E0
:1000700063010008630100086301000863010008D0
:1000800063010008630100086301000863010008C0
:1000900063010008630100086301000863010008B0
:1000A00063010008630100086301000863010008A0
:1000B000513000087D300008C1300008630100089D
:1000C0006301000863010008630100086301000880
:1000D000630100086133000889330008B133000868
:1000E0006301000863010008630100086301000860
:1000F0006301000863010008630100086301000850
:10010000630100086301000863010008630100083F
:10011000D932000821330008630100086301000898
:10012000630100086301000863010008630100081F
:10013000DFF810D000F094FF004800475D49000848
:10014000AFF30080400C0020064880470648004777
:10015000FEE7FEE7FEE7FEE7FEE7FEE7FEE7FEE777
:10016000FEE7FEE7D92F000831010008D2B201E016
:1001700000F8012B491EFBD270470022F6E710B5AC
:1001800013460A4604461946FFF7F0FF204610BD05
:1001900030B504460020034600E05B1C934203D2C6
:1001A000E05CCD5C401BF8D030BD000070B50F4D59
:1001B00000B92868002412E00A4602E09E4203D0FB
:1001C000521C1378002BF9D1DAB2224305D02BB19F
:1001D00024B1002100F8011B04E00446401C06780D
:1001E000002EE9D12860204670BD000038020020B2
:1001F0000FB400B58DB010A909900B9000914FF08D
:10020000FF300A9000200C900548069005480790A2
:100210006A4609A80F9900F0D5FD0DB05DF814FBF2
:10022000E10D0008FF0D00082DE9FF5F1D464FF0AE
:10023000FF3BD5E9014691465F464FF00008A969AA
:100240007F1C01988847296A824688470028F6D192
:10025000BAF1FF3F0CD024F4C064002E19DD600613
:1002600014D5BAF12B0F09D0BAF12D0F0ED103E03E
:10027000584604B0BDE8F09F44F48064A9697F1C2F
:1002800001988847761E8246002E02DDBAF1300FB3
:1002900003D0B9F1000F26D032E0A969761E44F4EC
:1002A00000747F1C019888478246002E05DDBAF154
:1002B000780F06D0BAF1580F03D0B9F1000F10D063
:1002C0001EE0B9F1000F02D0B9F1100F18D1A969E1
:1002D000761E24F400747F1C019888478246102003
:1002E00002E0082000E00A20814609E008FB090836
:1002F000A969761E44F400747F1C019888478246E1
:10030000002E05DD4946504600F048FD0028EDDA94
:10031000E96901988847A00502D46FF00100A8E7B9
:10032000E00725D1600613D5600502D5C8F10000AD
:1003300000E0404629680A1D2A600968220501D5A7
:10034000087015E0220701D5088011E008600FE071
:100350002868011D29600068210502D580F8008009
:1003600006E0210702D5A0F8008001E0C0F8008077
:1003700038467EE72DE9FF4F087883B09946FF287D
:1003800005D0491C2D2804D00024002008E00020BE
:100390000BE00124F9E700EB800003EB4000491C6F
:1003A0000B78FF2BF7D104B140420023029314785D
:1003B00019461D462D2C01D02B2C04D1521C2D2C5E
:1003C00013D000240294AA461478FF2C0FD00A25DB
:1003D000A3FB057801FB05814FF0000C03FB0C111A
:1003E000521CE3194AEB0101EEE70124EAE78144DC
:1003F00053EA010002D019F5C87F06DA03980021FC
:10040000C0E9001107B0BDE8F08F0025AE4E2F46C1
:10041000DFF8B882184600F0FFFDCDE90001B9F120
:10042000000002DAC9F1000400E004460023A74AF4
:100430001AEB030B42EB045A12E0E00707D02A46FE
:1004400033463846414600F082FA074688462A4637
:1004500033461046194600F07AFA05460E466410F7
:10046000002CEAD1DDE90001B9F1000F5A465346EC
:1004700006DA00F0DEFA3A46434600F0DAFA05E022
:1004800000F065FA3A46434600F061FA029A0AB172
:1004900081F00041039AC2E90001B3E72DE9FF4F63
:1004A0001F468DB0D7E901464FF0FF382E20454654
:1004B0004FF000090B90B9696D1C0E988847396A96
:1004C000824688470028F6D1BAF1FF3F0AD024F4CB
:1004D000D064002E11DDBAF12B0F08D0BAF12D0F28
:1004E0000BD102E0404611B08DE744F48064B96955
:1004F0006D1C0E9888478246761E6946600501D5B8
:100500002D2000E02B208DF8000001F1010B0DF1F2
:10051000200809E0B9696D1C0E98884782460F983B
:1005200044F40074761E0560002E02DDBAF1300F2F
:10053000F0D00B998A453ED144F0800406E00F9933
:10054000681CA9F1010944F400740860B9696D1CC4
:10055000761E0E98884782463028F0D02BE00B9903
:100560008A4505D1200603D444F08004761E18E0A5
:10057000504603F0D1FA08B30DF11301761E44F48E
:1005800000748B4508D2AAF130000BF8010B20064D
:1005900007D5A9F1010003E0200602D409F101000A
:1005A0008146A00502D50F99681C0860B9696D1CC9
:1005B0000E9888478246002ED1DC53E0002E51DD94
:1005C000BAF1650F02D0BAF1450F4BD1A00549D55C
:1005D000B9696D1C24F44074761E0E9888478246D3
:1005E000002E0CDD2B2804D0BAF12D0F07D144F4D6
:1005F0008074B9696D1C0E9888478246761EE005A6
:1006000001D52D2100E02B2108F8011BCDF82C800D
:1006100021E00DF12901761E44F4007488450CD2C6
:10062000AAF1300010F0FF0088F8000002D10B9909
:10063000884509D908F1010806E0E00501D52448FC
:1006400001E042F20F708146B9696D1C0E9888472F
:1006500082460F980560002E04DD504603F05CFAD8
:100660000028D6D1F9690E988847FF208BF8000042
:1006700088F800000020069007904B466A4608A9BB
:1006800006A8FFF777FEA00502D46FF001002AE765
:1006900014F0240F0AD0E00714D1DDE906123868FF
:1006A000031D3B600068C0E900120BE0DDE90601B4
:1006B00000F0D6FA0146E00704D13868021D3A601E
:1006C0000068016028460EE7000014400000F03F7B
:1006D000F1D8FFFFF0B480EA0102D40F4200B2EB80
:1006E000410F02D20246084611464A0042D0C30DCD
:1006F000DDB2C1F3C752AD1A202D35DAC1F31601B0
:1007000041F4000204B15242C5F1200602FA06F19A
:100710002A411044B3EBD05F23D0C4B1012DA0EB2C
:10072000C35009DCF0BC4FF0004202EAC352DBB216
:1007300000F5000000F07DBB400000F1807000EB90
:10074000C350A0F1807040EAD170490009E0490827
:1007500041EAC071A0EBC35000F50000400800EB77
:10076000C350F0BC00F05CBB6142012202EB4101CE
:10077000001BF6E7F0BC704781F00041AAE780F06B
:100780000040A7E780EA010210B502F000434000F4
:1007900022D04A001FD0010E01EB1261C0F35600B7
:1007A000C2F3560240F4000042F40002A0FB022013
:1007B00000047F39140400D0401C50EA124001D4D8
:1007C0004000491EC2B20C0604EBD010401C400889
:1007D000802A02D003E0002010BD20F00100002993
:1007E00000DA0020184310BD420005D0C0F3C75204
:1007F0005242914201DC0020704700EBC15070472B
:100800002DE9FE4F804681EA0300C00F0C460090A0
:1008100021F0004123F00045B8EB0200A94105D2C8
:100820004046214690461C460B46024623F00040B7
:10083000104347D0270DC7F30A00C3F30A510290B3
:10084000401A019040286BDAC3F3130040F4801B78
:100850000098924620B10023D2EB030A63EB0B0B06
:1008600001985946C0F14002504600F066FA06462B
:100870000D4650465946019A00F07EFA10EB0800EA
:100880006141002487EA115284EAE7731A4340D099
:10089000009A62B3019A012A4FEA075215DC001B45
:1008A00061EB02014FF0004202EA0752CDE900423B
:1008B000001C41F5801132462B4600F0F7FA03B0D8
:1008C000BDE8F08F40462146F9E7001B61EB0201CD
:1008D000001C41F5801300185B412018A2F5001799
:1008E00047EB030140EAD570B6196D4111E06D0880
:1008F0004FEA360645EAC0754FEA0752001B61EB26
:100900000201001C41F5801149084FEA300000192E
:10091000514132462B4603B0BDE8F04F00F0B7BA64
:100920000098012240000023D0EB020263EBE07349
:10093000009821464FEAE074B8EB000061EB040137
:10094000E9E783F000435BE781F0004158E72DE9D8
:10095000FE4F81EA030404F0004421F000410094BA
:100960004FF0000B23F0004350EA01045ED052EA3E
:1009700003045BD0C3F30A54C1F30A552C44A4F218
:10098000F3340194A0FB0254C1F3130141F480112C
:10099000C3F3130343F4801301FB024400FB034E33
:1009A000840A970A44EA815447EA8357A4FB0768FC
:1009B00002958D0A05FB07854FEA932C04FB0C5426
:1009C0002705029D4FEA065847EA1637B5EB08059A
:1009D0006EEB070C870E920E47EA811742EA8312EC
:1009E000A7FB0201B6EB0B0164EB00042B0D43EAFD
:1009F0000C335E1844EB1C50DA465146E7FB02010B
:100A0000C5F313044FEA0B3343EA14534FEA04329D
:100A1000019C43EA0603A4F10C040294009CCDE976
:100A200000B400F043FA03B0BDE8F08F00200146A7
:100A3000F9E72DE9F04D81EA030404F0004B21F0C1
:100A4000004514464FF0000A23F0004150EA050229
:100A500020D054EA01021DD0C5F30A570246C5F35F
:100A60001303C1F31300C1F30A5640F4801543F495
:100A70008013A7EB0608101BD64608F2FD3873EB6F
:100A8000050002D308F1010801E092185B41B8F1BA
:100A9000000F03DA00200146BDE8F08D00204FF47E
:100AA0008011064684460EE0171B73EB050705D33D
:100AB000121B63EB050306434CEA010C49084FEA9D
:100AC000300092185B4150EA0107EDD152EA030071
:100AD00012D082EA040083EA0501084305D0101B06
:100AE000AB4106D20122002306E000224FF0004372
:100AF00002E06FF0010253101AEB06004CEB0851B4
:100B000010EB0A0041EB0B01BDE8F04D00F0BFB95E
:100B1000C10F80EAE0700844CA079623002100F064
:100B200088B996230022114600F083B90EB5C10F93
:100B300080EAE0700844CA07002140F233438DE8A0
:100B40000E000A460B4600F0B1F903B000BD00F0FC
:100B5000004220F00040C10DC0F3160040F4000038
:100B60007F2901DA00207047962903DCC1F1960144
:100B7000C84001E096398840002AF4D040427047CE
:100B800020F00040C10DC0F3160040F400007F29A2
:100B900001DA00207047962903DCC1F19601C840B4
:100BA0007047963988407047C1F30A5210B5C1F3B7
:100BB000130140F2FF3341F480119A4201DA002020
:100BC00010BD40F233439A42A2F2334203DC524258
:100BD00000F0C2F810BD904010BD00F0004230F0AF
:100BE00000400AD0C10D01F56071C0F3160042EA61
:100BF0000151C20840071143704700200146704769
:100C000030B5041E71F1000404DB4FF00044404293
:100C100064EB0101141E73F1000405DB1C464FF068
:100C20000043524263EB04038B4208BF824230BD53
:100C300030B5041E71F1000404DB4FF00044404263
:100C400064EB0101141E73F1000405DB1C464FF038
:100C50000043524263EB0403994208BF904230BD07
:100C600001F0004330B421F0004150EA010206D007
:100C70000A0DA2F56072C1F31301002A02DC30BC38
:100C800000207047440F44EAC104C100E01830BCA2
:100C900000EBC25000F0C4B8002801DBC0F10040F6
:100CA000002901DBC1F100418142704730B50B469C
:100CB000014600202022012409E021FA02F59D428C
:100CC00005D303FA02F5491B04FA02F52844151E60
:100CD000A2F10102F1DC30BD2DE9F05F05460020F4
:100CE00092469B4688460646814640241BE028469D
:100CF00041464746224600F02FF853465A46C01A4E
:100D0000914110D311461846224600F016F82D1ACC
:100D100067EB01084F4622460120002100F00DF844
:100D200017EB00094E41201EA4F10104DFDC484608
:100D300031462A464346BDE8F09F202A04DB203A8C
:100D400000FA02F1002070479140C2F1200320FA1E
:100D500003F3194390407047202A04DB203A21FA1C
:100D600002F00021704721FA02F3D040C2F12002C4
:100D70009140084319467047202A06DBCB17203ADA
:100D800041FA02F043EAE07306E041FA02F3D04090
:100D9000C2F1200291400843194670473A2800D218
:100DA000303820F02002412A01D3A2F137008842D6
:100DB00001D34FF0FF30704702681144137801608F
:100DC00018467047D16004495161044911620021FD
:100DD0001161114600F05CB9B90D000885100008DA
:100DE000426842B1016811F8013B23B1521EC0E9CB
:100DF0000012184670470121C160881E7047426882
:100E00005AB1C368016843B983688B4205D0491E53
:100E1000521CC0E90012002070474FF0FF307047AD
:100E20000029A8BF7047401C490008BF20F00100FE
:100E3000704710B4B0FA80FC00FA0CF050EA0104DC
:100E400004BF10BC704749B1CCF1200421FA04F46E
:100E500011FA0CF118BF012121430843A3EB0C0147
:100E6000CB1D4FEA00614FEA102042BF002010BCAA
:100E7000704700EBC35010440029A4BF10BC70475A
:100E8000401C490008BF20F0010010BC704710B59D
:100E9000141E73F1000408DA401C41F1000192189D
:100EA0005B411A4301D120F0010010BD2DE9F04D46
:100EB00092469B4611B1B1FA81F202E0B0FA80F29B
:100EC00020329046FFF739FF04460F4640EA0A00F9
:100ED00041EA0B0153465A46084313D0114653EAE0
:100EE000010019D0C8F140025046FFF735FF054612
:100EF0000E46504659464246FFF71FFF084305D0AD
:100F0000012004E020463946BDE8F08D002005436D
:100F100046EAE0762C4337430A986305E40AA0EBDF
:100F200008000022FD0A44EA47540A3002D5002096
:100F30000146E9E7010510196941DDE90845001995
:100F40006941BDE8F04DA2E770B521F000430343CD
:100F50000CD0C1F30A550024D5EB040564EB04035F
:100F6000D617AD1AB34102DB0020014670BD201830
:100F700041EB025170BD2DE9F04D00231A461B1ABA
:100F80008A4103DB00200146BDE8F08DC1F30A521F
:100F9000C1F3130141F480154FF0000BD10702D1CA
:100FA00000186D41521E0027044640F2FF113846DA
:100FB00001EB620A3E468046024600204FF4801153
:100FC000FFF7CAFEC2197141BB1846EB0100B4EB32
:100FD000030C75EB000C04D3E41A65EB000517460F
:100FE0000E46241908F101006D4180463428E3DDE6
:100FF000F91946EB0600091BA84103D24FF0FF3256
:10100000134601E0002213461BEB070046EB0A5192
:10101000BDE8F04DFFF73BBF0EB540F23342029200
:101020000022CDE900221346FFF740FF03B000BDC8
:10103000C1F30A52C1F3130140F2FF3341F48011AE
:101040009A4202DA00200146704740F233439A4246
:10105000A2F2334202DC5242FFF77EBEFFF76DBEC2
:10106000064C074D06E0E06840F0010394E80700F5
:1010700098471034AC42F6D3FFF75EF85059000899
:1010800070590008C0B24FF4F05100F099B9000057
:101090002DE9F34F8BB04FF0000801F10C000C4626
:1010A0004FF0010B46460DF1080A019062690121DB
:1010B00001989047051E2DD0252D2CD0216A8847F8
:1010C000C0B16269012101989047216A88470028D0
:1010D000F7D1411E62690198904700E0761CA16932
:1010E0000B988847216A88470028F7D1E1690B9857
:1010F0008847DBE7A1690B9888470746A84201D1DA
:10110000761CD3E7E1690B9888477F1C02D1B8F1C0
:10111000000F6FD047E1002762693D4639460198CC
:1011200090472A2804D1626901210198904701253E
:10113000DFF888926269012101989047A0F130019F
:101140000A290AD24F45E5DC07EB870100EB41078E
:10115000303FDFD445F01005ECE7E90601D46FF02D
:1011600000476C280AD04C2814D0682815D06A286B
:101170000DD074281CD07A281AD01DE06269012194
:10118000019890476C2802D045F0040514E045F022
:1011900002050DE045F020050AE062690121019891
:1011A0009047682802D045F0080505E045F4006541
:1011B0006269012101989047C4E9015765283DD033
:1011C00019DC58287AD00CDC452837D004DC2528D7
:1011D00026D0412831D131E046282FD047282CD1C4
:1011E0002CE05B2877D0612828D063287CD0642845
:1011F00023D15AE0D1E06F2848D008DC66281DD002
:1012000067281BD0692821D06E2816D127E07028C6
:1012100045D0732868D0752847D078280DD14DE087
:10122000A1690B988847054625283FF469AFE16915
:101230000B9888476D1C3FF46AAFB4E023466A46BA
:101240006FF001000B99FFF729F99FE045F040008E
:101250006060A80723464FF0000236D43EE0E8075E
:101260007FF447AF2068011D21600068290501D582
:1012700006701BE7290701D5068017E7A90703D5E4
:10128000F117C0E9006111E706600FE745F0400083
:101290006060A80723464FF0080216D41EE040F60F
:1012A0000E0125EA0100606016E045F04000606034
:1012B000A80723464FF00A0207D40FE045F040008C
:1012C0006060A80708D5234610226FF001000B9933
:1012D000AFF300805AE007E0234610226FF00100D0
:1012E0000B99FEF7A1FF51E04FF000094F464B4626
:1012F000632802D05B2807D041E02079C00601D4E2
:101300000120A06001273AE062690121019890471D
:101310005E2805D14FF0010962694946019890475E
:10132000216939B900210A46534643F82120491C56
:101330000829FADBB0B3216969B9C11700EBD162A2
:1013400053110AEB830122F01F02821A01200B685D
:10135000904003430B6062690121019890475D282A
:10136000E8D1B9F1000F09D00020514651F82020F2
:10137000D24341F82020401C0828F7DB02AB22466C
:1013800000976FF001000B99AFF3008000280CDA92
:10139000401C08D1BBF1000F05D04FF0FF300DB05D
:1013A000BDE8F08FFFE74046F9E7E90701D108F112
:1013B000010806444FF0000B78E60000CCCCCC0CC2
:1013C0007F2801D9002208E0064A02EB5002C0073C
:1013D000127800D1120902F00F020120904008405B
:1013E000704700001059000870B58C1810F8015BA8
:1013F00015F0070301D110F8013B2A1106D110F8AE
:10140000012B03E010F8016B01F8016B5B1EF9D1B1
:101410002B0705D40023521E0DD401F8013BFAE737
:1014200010F8013BCB1A921C03E013F8015B01F8A2
:10143000015B521EF9D5A142D8D3002070BD000037
:101440002DE9F04140F2DC5422464FF47A7100203D
:1014500003F08CFA40F2E47622463146012003F094
:1014600085FA4FF4FA7722463946022003F07EFAD5
:101470004FF41B7522462946032003F077FA0348F0
:10148000048046808780C580BDE8F0812801002067
:101490002DE9F04140F2DC5540F2C1742A46214664
:1014A000002003F063FA40F2E4762A463146012038
:1014B00003F05CFA4FF4FA772A463946022003F02B
:1014C00055FA2A464FF41B752946032003F04EFABD
:1014D0000348048046808780C580BDE8F081000015
:1014E0002801002038B5144C062211A16068FEF7CF
:1014F0004FFE00281AD111A1FEF758FE0CE06A46F3
:101500000FA1FEF775FE9DF800100FA001F032FB51
:101510000AA10020FEF74AFE0028F0D101219DF823
:10152000000003F04BFA61680020087038BD00002D
:10153000B6AFD7F7D7E90000500100202C0000001B
:101540002568687500000000616374696F6E203D56
:1015500020256868750D0A002DE9F04140F2DC5441
:1015600022462146002003F001FA40F2B637224617
:101570003946012003F0FAF940F272652246294605
:10158000022003F0F3F94FF4A0662246314603200F
:1015900003F0ECF90348048047808580C680BDE8ED
:1015A000F0810000280100202DE9F04140F2DC55D7
:1015B00040F2B6342A462146002003F0D7F940F223
:1015C00076262A463146012003F0D0F940F2A147A1
:1015D0002A463946022003F0C9F92A4640F262251C
:1015E0002946032003F0C2F903480480468087801F
:1015F000C580BDE8F0810000280100202DE9F04100
:1016000040F2DC554FF4FA642A462146002003F0EC
:10161000ADF96E102A463146012003F0A7F940F2D9
:10162000C9472A463946022003F0A0F92A4640F26B
:101630009E252946032003F099F90348048046803B
:101640008780C580BDE8F08128010020FEE7704753
:1016500000B502464FF47A7302E0184600F004F831
:10166000521E501CF9D100BD00EBC000C1004FF06C
:10167000E020416100218161052101610169C90307
:10168000FCD50421016170472DE9F843074681F03C
:101690000040FFF7A2FA504A504BFFF758F90646B0
:1016A000044688460D463846FFF797FA89460746AE
:1016B00022462B46FFF7A4F8FFF7D2FA484C05461E
:1016C00020603A464B4630464146FFF73AF9FFF76D
:1016D000C7FA60604FF40009424F0126DFF8088125
:1016E0004D451DDB39462846FFF74CF8FFF748FA11
:1016F00082B20121FF230846009600F090F8394697
:101700002068FFF73FF8FFF73BFA82B2FF23012181
:101710000420009600F083F8002000F067F81CE039
:1017200041462846FFF72EF8FFF72AFA82B2FF2338
:1017300000210120009600F072F841462068FFF772
:1017400021F8FFF71DFA82B2FF2300210420009642
:1017500000F065F8002000F049F8606848451DDB9E
:101760003946FFF70FF8FFF70BFA82B2FF2301218A
:101770000220009600F053F839466068FFF702F83F
:10178000FFF7FEF982B2FF2301210320009600F04B
:1017900046F8BDE8F843002000F028B84146FEF7BF
:1017A000F1FFFFF7EDF982B2FF230021022000963E
:1017B00000F035F841466068FEF7E4FFFFF7E0F916
:1017C00082B2FF2300210320009600F028F8BDE834
:1017D000F843002000F00AB89A9999999999C93F5D
:1017E0003C00002000002041000020C11FB5002166
:1017F00000910191029103918DF80000FF208DF876
:10180000010066208DF802006B208DF80300042192
:10181000684601F04BF90A20FFF71AFF1FBD7FB59C
:10182000089D002400940194029403948DF8000014
:10183000F6208DF801008DF80210100A8DF80300D3
:101840008DF804208DF805308DF806506B208DF84A
:1018500007000821684601F029F90A20FFF7F8FE81
:101860007FBD2DE9F0410022CC7804F00F03E4069F
:1018700001D58C7823430C784FF00F0714F0FF0F3D
:101880004FF0010C1CD005680CFA02F40E882640BB
:10189000A64211D1960007FA06F825EA080503FAD0
:1018A00006F848EA0505CE78282E02D0482E02D048
:1018B00002E0446100E00461521C082AE4D30560A0
:1018C0000A88FF2A1ED94568002202F108060CFA90
:1018D00006F40E882640A64210D1960007FA06F8B4
:1018E00025EA080503FA06F848EA0505CE78282E09
:1018F00000D14461CE78482E00D10461521C082AE0
:10190000E3D34560BDE8F08102460020D2680A4278
:1019100000D0012070474161704701617047002A83
:1019200001D0016170474161704700002DE9F04F1F
:1019300087B004460D4616461F460022964B2046A9
:101940002946FEF7FEFF04460D460022934B304623
:101950003946FEF755FF06460F460022904B2046BB
:101960002946FEF7EEFF04460D4632463B4630461A
:101970003946FEF7ECFF8046894622462B46204634
:101980002946FEF7E4FF42464B46FEF739FFCDE914
:101990000410844A844BFEF7D4FF844A844BFEF73C
:1019A000D0FF844A844BFFF744F882468B4650466A
:1019B000594602F041FC814AC2E90601DDE9041002
:1019C00003F07EFA7E4A7F4BFEF7C1FFCDE90001AE
:1019D000DDE90410754A764BFEF7B6FF714A724B8B
:1019E000FEF7AFFFCDE90210DDE90023FFF721F894
:1019F00002F022FC8046894652465B4672A001F006
:101A0000B9F86E48D0E9062372A001F0B3F8DDE919
:101A1000041003F055FA6A4A6A4BFEF798FF024633
:101A20000B46DDE90210FFF704F802460B4666A0FC
:101A300001F0A0F842464B466AA001F09BF822460E
:101A40002B463046394602F087FE42464B46FEF7AB
:101A5000D7FE5A4AC2E90401D2E9063C1A46634657
:101A6000FEF76FFF554AC2E9080122462B46304671
:101A7000394602F071FE02460B465DA001F07AF88D
:101A80004E48D0E904235DA001F074F84B48D0E93A
:101A900008235EA001F06EF8DDE910AB4749D1E9FB
:101AA000040101F0EDFB04460D464449D1E906016D
:101AB00001F0E6FB06460F464049D1E9080101F076
:101AC000DFFB8046894622462B4654A001F052F89F
:101AD00032463B4655A001F04DF842464B4657A0D2
:101AE00001F048F80022594B50465946FEF72FFFA7
:101AF000DFF85CA100225346FEF79BFFDFF854B1EC
:101B000000225B46FEF720FFFFF74EF82B490881C5
:101B10002246514C2B4600202146FEF712FF4F4D26
:101B200000222B46FEF713FF00225346FEF781FFEB
:101B300000224B4BFEF764FEFFF736F81F49488141
:101B40000022484B30463946FEF75AFE0022464BEB
:101B5000FEF7FDFE00222346FEF76BFF0022434BFB
:101B6000FEF74EFEFFF720F81449888100222B462D
:101B700040464946FEF7EBFE00223D4BFEF759FF7B
:101B800000225B46FEF7E0FEFFF70EF80B49C88126
:101B900007B0BDE8F08F000000002E4000000840B4
:101BA0000000F03F7C14AE47E1426D4090C2F52842
:101BB0005C337040C4F5285C8FCA7E402801002049
:101BC0009A99999999993EC061636F733A256C66A9
:101BD0000D0A00007468657461323A256C660D0A5E
:101BE000000000006661693A256C660D0A0000007D
:101BF0006174616E3A256C660D0A00007468657444
:101C000061313A256C660D0A000000007468657445
:101C100061333A256C660D0A00000000416E676C66
:101C200065313A256C660D0A00000000416E676C54
:101C300065323A256C660D0A00000000416E676C43
:101C400065333A256C660D0A0000000000408F40A5
:101C500000806640007097400080564000409F40E2
:101C600000E4964000003E4000E88C4000B8804010
:101C700000E07040FEE7000002494CF6CC400860EE
:101C8000704700000030004000F014B870B5054601
:101C90000C4645F2555000F021F8284600F012F8A5
:101CA000204600F015F800F005F8BDE87040FFF799
:101CB000E3BF000002494AF6AA200860704700000E
:101CC000003000400149486070470000003000408B
:101CD00001498860704700000030004001490860F9
:101CE00070470000003000401CB5184A1369D268E4
:101CF000CDE900238DF80100072813D0192811D051
:101D000022280FD023280DD001228DF802208DF833
:101D100003109DF80020491C104408448DF804006D
:101D200005210FE002228DF8022000228DF8032009
:101D30008DF804109DF800201044801C08448DF894
:101D400005000621684601F0ADFA1CBD0C580008DC
:101D50001CB504A003C8CDE900010521684600F0C8
:101D6000C3FE1CBDAA180102C50000001CB504A0DA
:101D700003C8CDE900010621684600F0B5FE1CBD90
:101D8000AA19020002C7000008B504A0006800906C
:101D90000421684600F0A8FE08BD0000AA1000BAA1
:101DA00070B58EB006460D46302101AC201DFEF701
:101DB000E4F91948406801900B208DF806008DF871
:101DC0000760042200231046E95C521CD2B2215461
:101DD0005B1C062BF7DB2A231146521CD0B263543E
:101DE0003F23411CC9B22354481CC0B26354411C58
:101DF000CAB22354002105E0A05C635C1844A054DF
:101E0000491CC9B29142F7D3521CD1B201A801F0CA
:101E100049FA0EB070BD00000C58000870B58EB0C5
:101E200006460D46302101AC201DFEF7A6F91948E3
:101E3000806801900B208DF806008DF80760042261
:101E400000231046E95C521CD2B221545B1C062BC5
:101E5000F7DB2A231146521CD0B263543F23411CA6
:101E6000C9B22354481CC0B26354411CCAB22354A3
:101E7000002105E0A05C635C1844A054491CC9B271
:101E80009142F7D3521CD1B201A801F00BFA0EB067
:101E900070BD00000C58000801461320FFF724BF56
:101EA00070B50A4D4FF4807421462846FFF72CFD8B
:101EB00028B121462846BDE87040FFF72CBD2146D9
:101EC0002846BDE87040FFF728BD0000001C014017
:101ED00070B50A4D4FF4007421462846FFF714FDF3
:101EE00028B121462846BDE87040FFF714BD2146C1
:101EF0002846BDE87040FFF710BD0000001C0140FF
:101F000070B50A4D4FF4806421462846FFF7FCFC6B
:101F100028B121462846BDE87040FFF7FCBC2146A9
:101F20002846BDE87040FFF7F8BC0000001C0140E7
:101F300038B50121802000F037FD10208DF8030016
:101F40004FF4E064ADF8004003208DF80200054D29
:101F500069462846FFF785FC21462846FFF7DBFC4B
:101F600038BD0000001C014038B5134C062210A1FA
:101F70006068FEF70DF9002819D110A1FEF716F9D7
:101F80000CE06A460EA1FEF733F99DF800100EA092
:101F900000F0F0FD09A10020FEF708F90028F0D1BB
:101FA0009DF8000000F01AF861680020087038BD44
:101FB000B9DBB2E2CEBB0000500100202C000000D3
:101FC00025686875000000006C6F6F6B5F706F7341
:101FD000203D20256868750D0A00000005280ED2F6
:101FE000DFE800F0030507090B00FFF7B5BAFFF7BC
:101FF00027BAFFF74DBAFFF7D7BAFFF7FFBA704716
:10200000FEE700002DE9F05F6D4CDFF8A091684E0F
:10201000DFF8A0A1DFF8A0B1DFF8A0814FF400073E
:1020200004F10C05D4E90010FEF7A6FBFEF7D5FD80
:1020300021F000414A463346FEF7FAFD31D26148AD
:10204000A168814200D9A0605F48A168814200DB9D
:10205000A060A068FEF7C1FD21F000415B4A5C4B27
:10206000FEF7CEFD09D2A068B84201DBC4F808A093
:10207000A068404501D3C4F808B0D4E90101FEF7D7
:1020800029FB60602168FEF777FBFEF7A6FD21F0D3
:1020900000414FF033324F4BFEF7B2FD01D22068C2
:1020A0006060D5E90010FEF767FBFEF796FD21F0B2
:1020B00000414A463346FEF7BBFD32D2A9684FF0D5
:1020C0004040814200D9A860A8684FF08046B042E5
:1020D00000DDAE60A868FEF780FD21F000413B4ABC
:1020E0003B4BFEF78DFD09D2A868B84201DBC5F86D
:1020F00008A0A868404501D3C5F808B0D5E901019A
:10210000FEF7E8FA68602968FEF736FBFEF765FD22
:1021100021F0004100223346FEF772FD01D228680B
:1021200068606068FEF759FD21F0004100222A4BEB
:10213000FEF77EFD09D26068B84201DB2748606087
:102140006068404501D3264860606868FEF745FD39
:1021500021F000410022234BFEF76AFD09D2686896
:10216000B84201DB204868606868404501D31F48D9
:1021700068601F4F61683868FEF78EFD01D0012648
:1021800000E0002669687868FEF786FD01D001202E
:1021900000E00020064307D0606838606968796015
:1021A000BDE8F05FFFF770BABDE8F09F2D431CEB70
:1021B000E2361A3FCDCCCC3DCDCCCCBD00008080EA
:1021C000A40300209A9999BF9A99993F9A9999994D
:1021D0009999B93F3333F33F000028400000404154
:1021E000000040C1000038400000C0410000C0C1F4
:1021F000340000207047000070B50F23C27801261C
:102200000178002A1ED0144A126802F4E062C2F576
:10221000E062120AC2F10404D3404578A5408278F6
:102220001A402A43120101F1E02181F800240078CC
:1022300000F01F018E404009800000F1E020C0F84E
:10224000006170BD01F01F0086404809800000F168
:10225000E020C0F8806170BD0CED00E00249084349
:1022600002490860704700000000FA050CED00E02C
:1022700070B50021154B0022002003EBC00462540E
:10228000401CC0B28028F8D3491CC9B20829F3D336
:1022900000F01AF90025002105F1B00000F0EBFA7A
:1022A0000021084600F0E7FA0021102000F0E3FAD0
:1022B00000240121002000F0DEFA641CE4B2802C2E
:1022C000F7D36D1CEDB2082DE5D370BDBC03002023
:1022D00038B50121802000F067FB14208DF8030041
:1022E00003208DF802004020ADF800000B4C694639
:1022F0002046FFF7B6FA8021ADF800106946204667
:10230000FFF7AFFA012240212046FFF708FB012228
:1023100080212046FFF703FB38BD0000001C014070
:102320002DE9F04106460024134D802727FA04F1D9
:10233000314201D0012200E0002280212846FFF72F
:10234000EEFA012240212846FFF7E9FA0022402157
:102350002846FFF7E4FA641CE4B2082CE6D3012215
:1023600040212846FFF7DBFA2846BDE8F04100226D
:102370004021FFF7D4BA0000001C014010B50B4CFF
:10238000012280212046FFF7CAFA0122402120467F
:10239000FFF7C5FA002280212046FFF7C0FA204649
:1023A0000022BDE810404021FFF7B9BA001C0140EF
:1023B00010B5094C002280212046FFF7B0FA012217
:1023C00040212046FFF7ABFA20460122BDE810402D
:1023D0008021FFF7A4BA0000001C014010B5FFF7F0
:1023E00077FF6420FFF734F90021AE2000F043FAB4
:1023F0000021084600F03FFA0021102000F03BFACF
:102400000021402000F037FA0021B02000F033FA1C
:102410000021812000F02FFA0021FF2000F02BFA8C
:102420000021A12000F027FA0021A62000F023FAC5
:102430000021A82000F01FFA00213F2000F01BFA25
:102440000021C82000F017FA0021D32000F013FA71
:102450000021084600F00FFA0021D52000F00BFA09
:102460000021802000F007FA0021D82000F003FAB4
:102470000021052000F0FFF90021D92000F0FBF930
:102480000021F12000F0F7F90021DA2000F0F3F943
:102490000021122000F0EFF90021DB2000F0EBF921
:1024A0000021302000F0E7F900218D2000F0E3F951
:1024B0000021142000F0DFF90021AF2000F0DBF94B
:1024C000BDE81040FFF7D4BE70B500250E4E0021C8
:1024D00005F1B00000F0CFF90021084600F0CBF97B
:1024E0000021102000F0C7F9002406EBC4000121F0
:1024F000405D00F0C0F9641CE4B2802CF5D36D1C83
:10250000EDB2082DE3D370BDBC03002010B5044626
:1025100008460021B03000F0AEF9102040EA141057
:10252000002100F0A8F904F00F00BDE810400021E0
:1025300000F0A1B92DE9F04781468846174641468B
:102540004846FFF7E3FF0024104E06EB4715012134
:10255000285D00F090F9641CE4B2102CF7D308F168
:10256000010808F0FF014846FFF7D0FF00240120D2
:1025700000EB470006EB00150121285D00F07BF918
:10258000641CE4B2102CF7D3BDE8F08746000020AD
:102590002DE9F04180460F460024203AD5B2B8F12B
:1025A0007F0F02D9A046BF1CFFB2102B12D03946B4
:1025B0004046FFF7ABFF184905EB450001EB40052E
:1025C0000121285D00F057F9641CE4B2062CF7D312
:1025D000BDE8F08139464046FFF798FF0F4E04EB07
:1025E00005100121305C00F046F9641CE4B2082CAF
:1025F000F5D37F1CF9B24046FFF788FF002404EBB7
:10260000051030440121007A00F035F9641CE4B271
:10261000082CF4D3DCE70000F44F00081C5200083B
:102620007CB5254C00262078002828D000210622E1
:102630000846FFF77FFF002211461020FFF77AFFC0
:10264000012200212020FFF775FF02220021302007
:10265000FFF770FF032200214020FFF76BFF0422E9
:1026600000215020FFF766FF052200216020FFF7C0
:1026700061FF062200217020FFF75CFF2670102505
:10268000CDE9005662880423501C60800221482056
:1026900000F09AF8094800950323426802210020BF
:1026A00000F010F80648009503234268042100203A
:1026B00000F008F87CBD000014000020A4030020F6
:1026C000B00300202DE9FF4F83B00746109D1E4642
:1026D0000598FEF73CFA80460024002801D14FF00F
:1026E000010401DAC0F100004FF00A0103E090FBA1
:1026F000F1F004F101040028F9DC059810F1FF4F16
:1027000007D3A7EB5500C0B22B462BA2049900F0CB
:1027100097F804F101094FF0010B4E4534DD05989F
:10272000FEF72EFACDE9005B0246E3B23846049983
:1027300000F04AF804FB05F000EBD07007EB6000F6
:10274000C0B22B461DA2049900F07AF8A6EB040A49
:102750000AF0FF010A2002F029F9FEF7E2F90599D3
:10276000FEF710F8FEF70CFA02460020CDE9005003
:1027700009FB05F909EBD97007EB6000C0B20AF05C
:10278000FF03049900F020F8A64207D1CDE9005BD1
:102790004246E3B23846049900F016F8A64208DA39
:1027A000049907B02B463846BDE8F04F04A200F06C
:1027B00047B807B0BDE8F08F2D0000002E000000E4
:1027C000657272726F0000002DE9FF5F8046DDE9DF
:1027D0000EBA91461D46002600244FEA5B072BE007
:1027E000281B401EC1B20A2002F0E0F8B9FBF0F04D
:1027F0000A21B0FBF1F201FB120096B9AC4210D2F3
:1028000070B9BAF1000F0BD0691E8C4209D007FBDA
:102810000480C0B25B4620220199FFF7B9FE09E0AF
:1028200001263030C2B207FB0480C0B25B4601997A
:10283000FFF7AEFE641CE4B2AC42D1D3BDE8FF9F0B
:102840002DE9F04104460E461746984600250DE056
:10285000434631462046FFF79BFE0834E4B2782C0D
:1028600002D90024B61CF6B26D1CEDB27A5D002AC6
:10287000EED1BDE8F081002902D0C0B200F014B85A
:10288000C0B2AFF3008010B50446FFF777FD7820A3
:10289000FFF746FD0020FFF743FD2046FFF740FD10
:1028A000BDE81040FFF784BD10B50446FFF766FD94
:1028B0007820FFF735FD4020FFF732FD2046FFF777
:1028C0002FFDBDE81040FFF773BD704701A000F079
:1028D00045B90000535F434D445F3032304500003E
:1028E00001A000F03BB90000535F434D445F30321C
:1028F0003044000038B51F4C06221CA16068FDF76B
:1029000047FC002823D11CA1FDF750FC07E06A46D4
:102910001AA1FDF76DFC18A10020FDF747FC002867
:10292000F5D19DF8000001280ED1FFF7CFFF4FF43D
:102930007A70FEF78DFE00F0F5F8012808D0FFF759
:10294000CFFFDD2000F032F961680020087038BD4B
:10295000FFF7C6FF0B4801780B4800F019F90A4849
:102960006421001FFDF709FCEEE70000B6FECEACC7
:10297000C2EB0000500100202C00000025686875A3
:10298000000000001900002044020020054A002930
:1029900003D0D1690143D1617047D1698143D161CD
:1029A0007047000000100240054A002903D09169D9
:1029B00001439161704791698143916170470000C3
:1029C0000010024010B5264A516801F00C01254B59
:1029D000002927D0042927D0082927D0036051686F
:1029E00001F0F0010909204B5C5C0168E1404160A5
:1029F000546804F4E064240A1C5D21FA04F4846041
:102A0000546804F46054E40A1B5DD940C160526804
:102A100002F44042920B144B1B1F9A5CB1FBF2F183
:102A2000016110BD0360DAE70360D8E7516801F483
:102A30007011536803F48033022404EB914133B1E5
:102A400053689B0307D5094B59430160C7E7074B00
:102A500059430160C3E7034B59430160BFE70000DE
:102A60000010024000127A000400002000093D001E
:102A7000704770B505460E46002404E0285D00F05E
:102A800005F8641CA4B2B442F8D370BD10B5064C6E
:102A90000146204600F058FD8021204600F0B0FCA1
:102AA0000028F9D010BD00000038014070B505467F
:102AB0000E46002404E0285D00F006F8641CA4B271
:102AC000B442F8D370BD000010B5064C0146204654
:102AD00000F03AFD8021204600F092FC0028F9D059
:102AE00010BD00000044004070B505460E460024AD
:102AF00004E0285D00F006F8641CA4B2B442F8D3E8
:102B000070BD000010B5064C0146204600F01CFDCB
:102B10008021204600F074FC0028F9D010BD000090
:102B20000048004004488179012901D00020704705
:102B300000218171012070471800002010B5064C5B
:102B40000146204600F000FD8021204600F058FCA0
:102B50000028F9D010BD0000004C004070B50546BB
:102B6000002403E0FFF7EAFF641CE4B2285D0028BC
:102B7000F8D170BD0FB400B599B01BAA68461A9978
:102B800000F064FE684600F021F819B05DF814FB0F
:102B900070B505460E46002404E0285D00F006F8F6
:102BA000641CA4B2B442F8D370BD000010B5064C4A
:102BB0000146204600F0C8FC8021204600F020FCA1
:102BC0000028F9D010BD00000050004070B5054647
:102BD000002403E0FFF7EAFF641CE4B2285D00284C
:102BE000F8D170BD2DE9F04F87B001218803FFF7C0
:102BF000DBFE01210420FFF7D7FE4FF018088DF807
:102C00001B804FF40070ADF8180003258DF81A50A2
:102C1000DFF8E8A206A95046FEF723FE04278DF848
:102C20001B704FF4806BADF818B08DF81A5006A9E0
:102C30005046FEF716FE4FF4165002900024ADF8F1
:102C400014404FF00C09ADF81290ADF81040ADF8FB
:102C50000E40ADF80C4002A9A94800F013FC012277
:102C600040F22551A64800F0F2FB40F22551A4485D
:102C700000F0B2FB4FF4A060FFF7F0FA25208DF8CA
:102C8000040001268DF807608DF805608DF8066058
:102C900001A8FFF7B1FA0121994800F0A5FB012135
:102CA0000420FFF781FE01214804FFF76FFE8DF835
:102CB0001B80ADF818708DF81A5006A95046FEF723
:102CC000D0FD8DF81B700820ADF818008DF81A5053
:102CD00006A95046FEF7C5FD4FF4E1300290ADF86D
:102CE0001440ADF81290ADF81040ADF80E40ADF8BC
:102CF0000C40DFF810A202A9504600F0C3FB40F2DE
:102D00002551504600F068FB012240F22551504603
:102D100000F09DFB26208DF804008DF807608DF8EB
:102D200005608DF8064001A8FFF766FA01215046BC
:102D300000F05AFB01210820FFF736FE012188042C
:102D4000FFF724FE8DF81B80ADF818B08DF81A50EF
:102D500006A96D48FEF785FD8DF81B70F002ADF8F1
:102D600018008DF81A5006A96748FEF77AFD4FF44F
:102D700016500290ADF81440ADF81290ADF8104026
:102D8000ADF80E40ADF80C4002A9604800F07AFBA7
:102D900040F225515D4800F01FFB012240F2255111
:102DA0005A4800F054FB27208DF804008DF8076086
:102DB0008DF805604FF0020A8DF806A001A8FFF714
:102DC0001BFA0121514800F00FFB01211020FFF7F1
:102DD000EBFD0121C804FFF7D9FD8DF81B80ADF88C
:102DE00018B08DF81A5006A94948FEF73AFD8DF83B
:102DF0001B70F002ADF818008DF81A5006A944486F
:102E0000FEF72FFD4FF416500290ADF81440ADF8C8
:102E10001290ADF81040ADF80E40ADF80C40DFF860
:102E2000F4B002A9584600F02DFB40F22551584657
:102E300000F0D2FA012240F22551584600F007FB7B
:102E400034208DF804008DF807608DF805A08DF80A
:102E500006A001A8FFF7D0F90121584600F0C4FAF6
:102E600001213020FFF7A0FD01210805FFF78EFDAD
:102E70008DF81B803003ADF818008DF81A5006A9A4
:102E80002348FEF7EEFC8DF81B70ADF818708DF836
:102E90001A5006A92048FEF7E4FC4FF4E1300290F6
:102EA000ADF81440ADF81290ADF81040ADF80E40FA
:102EB000ADF80C40194C02A9204600F0E3FA40F2AC
:102EC0002551204600F088FA012240F22551204683
:102ED00000F0BDFA35218DF804108DF807608DF8EB
:102EE00005608DF806A001A8FFF786F901212046AC
:102EF00000F07AFA07B0BDE8F08F0000000801404A
:102F00000038014000440040000C014000480040EF
:102F100000100140004C00400014014000500040EF
:102F2000AFF300800CB5002201920092274801689F
:102F300041F4803101604FF4A063016801F4003175
:102F400000910199491C0191009911B90199994287
:102F5000F3D10168890302D50121009100E00092BC
:102F60000099012930D11A490A6842F010020A601A
:102F70000A6822F003020A600A6842F002020A604C
:102F80004168416041684160416841F4806141604D
:102F9000416821F47C114160416841F4E8114160CD
:102FA000016841F08071016001688901FCD54168C8
:102FB00021F003014160416841F002014160416834
:102FC000C1F381010229FAD10CBD000000100240BA
:102FD000002002407047000010B50F48016841F022
:102FE0000101016041680D4A1140416001680C4ACD
:102FF00011400160016821F480210160416821F4E1
:10300000FE0141604FF41F018160FFF789FF054910
:103010004FF00060086010BD001002400000FFF893
:10302000FFFFF6FE08ED00E010B5FEF781FFFFF7A9
:10303000D5F9FFF7D7FD4FF4E15141F2883000F0A8
:10304000DFF8BDE8104040F271210520FEF71EBEFA
:1030500010B501218C07204600F068F8012809D13D
:1030600005490870FEF71CFF2046BDE8104001210D
:1030700000F04DB810BD00002C00002070B50D4EC2
:103080000121304600F052F8012812D10A4C0125E6
:1030900065700121304600F03AF8A088401C80B2EB
:1030A000A0800A2805D10548057000214170817073
:1030B000A18070BD000400402C00002026000020EC
:1030C00010B50D4C0121204600F030F8012811D137
:1030D0000021204600F01EF8084A01219170084A9C
:1030E00000211170074A11702046BDE810400121EF
:1030F00000F00DB810BD0000000800402C000020BA
:103100002400002025000020C94301827047C943E4
:1031100001827047002904D0018841F0010101803B
:103120007047018821F001010180704702460020AC
:10313000138A0B4092890A40002B02D0002A00D04B
:1031400001207047002A03D082890A438281704798
:1031500082898A4382817047018921F007010181B8
:103160007047000030B502881B4C1C4DA0420DD0AA
:10317000A8420BD0B0F1804F08D0194B984205D02F
:10318000184B984202D0184B984203D122F070039A
:103190004A881A43154B984206D0154B984203D0E3
:1031A00022F44073CA881A4302808A8882850A887A
:1031B0000285A0420AD0A84208D00E4A904205D00B
:1031C0000D4A904202D00D4A904201D1097A0186FF
:1031D0000121818230BD0000002C014000340140FB
:1031E0000004004000080040000C004000100040B7
:1031F00000140040004001400044014000480140EC
:103200007FB505460C4601210846FFF7BFFB4FF08E
:1032100080463046FFF7A0FF0022ADF80A20ADF847
:1032200006208DF80C206D1EADF80850641EADF818
:10323000044001A93046FFF795FF01213046FFF712
:1032400063FF01213046FFF762FF0122114630463D
:10325000FFF778FF4FF4A060FFF700F801208DF82A
:1032600003001C218DF800108DF801008DF802007C
:103270006846FEF7C1FF01213046FFF74BFF7FBDD7
:1032800010B50022044BFDF762FBBDE81040034A75
:10329000034BFDF7CEBB0000008066404AD8124DBC
:1032A000FB2109402DE9F04105460E460024094F57
:1032B0000BE0295D384600F047F98021384600F0E0
:1032C0009FF80028F9D0641CE4B2B442F1D3BDE801
:1032D000F08100000048004010B50E4C40F225512E
:1032E000204600F094F8012812D1204600F028F979
:1032F000C0B2094B094C9A78511CC9B29970A054BC
:103300000D2805D1491E5970012098710020987030
:1033100010BD0000004C00401800002040020020BA
:1033200010B50C4C40F22551204600F070F80128F1
:103330000FD1204600F004F9C4B22046FFF736FC56
:10334000054A1189481C1081044844541089C0B2B0
:10335000108110BD0050004018000020A402002081
:1033600010B5084C40F22551204600F050F80128D5
:1033700007D1204600F0E4F8C0B2BDE81040FFF7E6
:1033800085BB10BD0038014010B5084C40F22551F6
:10339000204600F03CF8012807D1204600F0D0F884
:1033A000C0B2BDE81040FFF78FBB10BD0044004025
:1033B00010B5084C40F22551204600F028F80128AD
:1033C00007D1204600F0BCF8C0B2BDE81040FFF7BE
:1033D00099BB10BD0048004040F66A120A0A01215C
:1033E0009140C94301807047002904D0818941F48C
:1033F000005181817047818921F40051818170479A
:103400000246002012880A4200D00120704770B5A1
:10341000002440F66A12C1F3421301F01F05012691
:1034200006FA05F2012B0CD0022B0DD0838A134033
:10343000090A8E40008830400BB100B101242046BB
:1034400070BD83891340F3E7038A1340F0E710B59A
:1034500040F66A13C1F3421301F01F040121A14099
:10346000012B07D0022B07D014303AB102680A436F
:10347000026010BD0C30F8E71030F6E702688A43AE
:10348000026010BD30B585B004460D46208A4CF66A
:10349000FF710840E98801432182A0894EF6F311AB
:1034A0000840A9882A8911436A8902431143A181EE
:1034B000A08A4FF6FF410840A9890143A1826846CE
:1034C000FFF780FA1D48844201D1039800E002987A
:1034D000A189090408D500EBC00101EB001029689F
:1034E0004900B0FBF1F007E000EBC00101EB001078
:1034F00029688900B0FBF1F06422B0FBF2F1090108
:103500000B096FF018056B4300EB8300A3891D04C2
:103510004FF0320307D503EBC000B0FBF2F000F030
:103520000700084306E003EB0010B0FBF2F000F0E8
:103530000F000843208105B030BD00000038014075
:103540008088C0F308007047C1F30801818070478C
:1035500070B5C0B000241E4D28881E4E31888842A8
:103560001DD02A8831881CA0FFF704FB6A461F4B38
:103570000BE02888185C2988491CC9B229803B289F
:1035800023D02146641CE4B25054288831888842F4
:10359000EFD117A16846FCF709FE1649486001F013
:1035A000A9F901F04DFC00F085FF01F0AFFC01F03E
:1035B000E7FC01F015FAFFF79DF900F0FBF8FDF7C5
:1035C00091FFFEF7D1FC40B070BD00201055E0E740
:1035D0002200002020000020686561643D25687598
:1035E0002C7461696C3D2568750D0A00A4020020E9
:1035F0003A00000050010020FEE700210846FEF7D7
:1036000043F8FDF7A9FFFFF7A3FFFEF7FBFCFFF769
:1036100007F8FEF739FBF6E710B50B2872D009DC86
:103620000B287CD2DFE800F024282F363D444B5293
:1036300059606700112873D008DCA0F10C00052840
:103640006DD2DFE800F066737A818800122868D0B6
:10365000132867D0142866D0632860D1FEF778FB62
:10366000FEF784FBBDE810404D490220FEF798BBF1
:10367000BDE81040FEF788BB4949BDE810408539D8
:103680000220FEF7CBBB4649BDE810407E39022040
:10369000FEF7C4BB4249BDE8104077390220FEF76F
:1036A000BDBB3F49BDE8104070390220FEF7B6BBF4
:1036B0003B49BDE8104070390220FEF7AFBB3849E6
:1036C000BDE8104069390220FEF7A8BB3449BDE8C7
:1036D000104062390220FEF7A1BB3149BDE810401D
:1036E0005B390220FEF79ABB2D49BDE810405439E2
:1036F0000220FEF793BB2A49BDE810404D39022055
:10370000FEF78CBB2649BDE8104046390220FEF783
:1037100085BB2349BDE810403F39022004E03DE06D
:1037200020E026E02CE032E0FEF778BB1C49BDE843
:10373000104038390220FEF771BB1949BDE810402E
:1037400031390220FEF76ABB1549BDE810402A391D
:103750000220FEF763BB1249BDE810402339022066
:10376000FEF75CBB0E49BDE810401C390220FEF795
:1037700055BB0B49BDE8104015390220FEF74EBB82
:103780000749BDE810400E390220FEF747BB044947
:10379000BDE81040C91F0220FEF740BB10BD00006D
:1037A000FD0100204FF4FA7240F65611042001F09A
:1037B000DDB8000038B5194C042216A16068FCF78A
:1037C000E7FC002824D116A1FCF7F0FC0CE06A46C7
:1037D00014A1FCF70DFD9DF8001014A0FFF7CAF925
:1037E0000FA10020FCF7E2FC0028F0D19DF80000BA
:1037F00018B9FFF7D7FFFEF753FB9DF8000001282B
:1038000003D100F01BF8FEF74BFB61680020087045
:1038100038BD0000D7A6D7D300000000500100201B
:103820002C00000025686875000000006E756D2092
:103830003D20256868750D0A000000004FF4FA72FB
:1038400040F2A461042001F091B8000037B514469D
:103850000846064B6A46214600F066F9044669466A
:10386000002000F0E4FC20463EBD00002F4200088E
:10387000490050EAC12018BF04204A0D18BF40F08B
:10388000010040F2FF72B2EB515F08BF40F002004E
:10389000012808BF052070472DE9F0414F1E00EBBD
:1038A000C7010446D1E9000115461E4637F006025D
:1038B0000DD02A463346FDF74AF87F1E04EBC703B6
:1038C000D3E90023FCF79CFF37F00602F1D1022F69
:1038D00025D0042F13D0062F18BFBDE8F0812A464B
:1038E0003346FDF734F8D4E90A23FCF789FF2A466A
:1038F0003346FDF72CF8D4E90823FCF781FF2A466C
:103900003346FDF724F8D4E90623FCF779FF2A466D
:103910003346FDF71CF8D4E90423FCF771FF2A466F
:103920003346FDF714F8D4E90223FCF769FF2A4671
:103930003346FDF70CF8D4E90023BDE8F041FCF76D
:103940005FBF0122FDF700BBFCF75ABF0022134600
:1039500010461146FDF76DB8024A00201107FDF729
:10396000F3BA000001FDFFFF02E008C8121F08C102
:10397000002AFAD170477047002001E001C1121FF0
:10398000002AFBD170470000014908607047000021
:103990003C0200202DE9FF5F82B00021DDE9043008
:1039A000020DDDF840B0034318D044F61050A2F2E7
:1039B000FF3242431514119801281FD0A5EB0B00CC
:1039C000401C5FEA000A4FF000064E4FDFF83891C6
:1039D000B046504615D5CAF1000413E011980124F1
:1039E0004AA3012801D16FEA0B010298119AC0E99C
:1039F0000031C0E9024206B0BDE8F09FCBF1000003
:103A0000DFE704460021404A491842EB0450CDE963
:103A1000001012E0E00707D032463B4640464946D8
:103A2000FCF795FF8046894632463B4610461946CC
:103A3000FCF78DFF06460F466410002CEAD1DDE945
:103A40000401DDE90023BAF1000F06DAFCF77FFF7D
:103A500042464B46FCF77BFF05E0FCF7EAFF424697
:103A60004B46FCF7E6FF04460E460022284BFDF7C6
:103A7000DFF803D84FF0FF30014607E00022254B66
:103A800020463146FCF7BCFEFDF7D2FA102409E0CF
:103A9000002C0ADB0A220023FDF71EF9039B3032BB
:103AA0001A55641E50EA0102F2D1641C039AC4F153
:103AB00011031444119A012A03D0012208430DD1A5
:103AC0000AE0084304D000204FF0110B119072E778
:103AD000A3EB0B056D1E0DE05B4504DD4FF000020E
:103AE00005F1010504E003DA4FF00002A5F101053C
:103AF000002AECD002981199C0E90231C0E90045D2
:103B000079E70000000014400000F03F30000000A2
:103B10000000F0430000E03F30380A2801D20120C5
:103B200070470020704700002DE9FF4F95B09A467E
:103B3000884606460025EEE1252877D10024274651
:103B4000F94A0121039400E0044316F8013F203BA9
:103B500001FA03F01042F7D130782A2811D06FF023
:103B60002F033078A0F13002092A16D8039A44F0C6
:103B7000020402EB820203EB42021044761C039023
:103B8000EFE758F8042B0392002A03DA504244F47A
:103B90000054039044F00204761C30782E2816D18D
:103BA00016F8010F44F004042A280DD06FF02F02FC
:103BB0003078A0F13003092B09D807EB870302EB1B
:103BC0004303C718761CF3E758F8047B761C30785B
:103BD0006C280FD006DC4C2817D068280DD06A2836
:103BE00014D104E0742810D07A280FD10DE044F4E9
:103BF00000140AE044F4801401E044F440147278A4
:103C0000824202D104F58014761C761C3078662836
:103C10000BD013DC582877D009DC002875D0452854
:103C2000F6D04628F4D047281AD193E118E063284B
:103C300035D0642879D0652812D18BE1702873D0F3
:103C400008DC6728F1D069286FD06E280DD06F2866
:103C500006D1ACE073282CD0752874D0782853D0C6
:103C60005246179990476D1C54E1C4F30250022844
:103C700009D003280DD0D8F8001004280DD00D600D
:103C800008F1040846E1D8F80010EA17C1E900522B
:103C9000F6E7D8F800100D80F2E70D70F0E718F89D
:103CA000041B8DF8001000208DF80100EB46012068
:103CB00003E058F804BB4FF0FF3061074FF00001FC
:103CC00002D40DE009F101018946B9420FDA8145BC
:103CD000F8DB1BF809100029F4D108E009F1010113
:103CE00089468142FADB1BF809100029F6D10398B6
:103CF0005346A0EB090721463846179A00F080FA90
:103D0000284400EB090507E044E008E10DE01BF85A
:103D1000010B524617999047B9F10109F7D2534662
:103D200021463846179AF2E039E00A21C4F30252DC
:103D30004FF0000B0091022A06D058F8040BC1176F
:103D4000032A09D00AE023E008F1070020F0070267
:103D5000F2E80201904605E000B2C117042A01D141
:103D600040B2C117002906DA0A460021404261EB41
:103D700002012D2202E0220504D52B228DF8042019
:103D8000012203E0E20701D02022F7E7914657E045
:103D90000A2100E010214FF0000B00910BE01021F0
:103DA0004FF0000B44F004040827009103E00820C2
:103DB0004FF0000B0090C4F30252022A05D058F8CD
:103DC000040B0021032A08D008E008F1070020F0C6
:103DD0000702F2E80201904603E080B2042A00D113
:103DE000C0B24FF0000922072AD53278702A07D0D6
:103DF000DDF800C08CF0100C5CEA0B0C05D00EE076
:103E000040228DF80420012208E050EA010306D088
:103E100030238DF804308DF8052002229146009B56
:103E200083F0080353EA0B030AD150EA010201D1DF
:103E3000620705D530228DF804204FF001097F1E5E
:103E40003278582A04D039A20C920CAA02920BE0C4
:103E50003BA2F9E75B46009AFCF73EFF0C9B9B5C9C
:103E6000029A521E0292137050EA0102F2D1029895
:103E700004A9081A00F1200B600702D524F480344D
:103E800000E001275F4502DDA7EB0B0000E000200A
:103E900000EB0B01009003984944401A0390E003A3
:103EA00006D453462146179A039800F0A9F9054411
:103EB000002706E001A85246C05D179990476D1C87
:103EC0007F1C4F45F6DBE0030CD553462146179A7D
:103ED000039800F095F9054404E030205246179904
:103EE00090476D1C0099481E00900029F5DC08E001
:103EF0000298029952460078491C029117999047FE
:103F00006D1CBBF10001ABF1010BF1DC5BE100F0DA
:103F100065F90544761C307800287FF40DAE19B0A1
:103F20002846BDE8F08F0000092801003031323307
:103F300034353637383961626364656600000000E5
:103F400030313233343536373839414243444546CF
:103F500000000000600700D4062708F1070020F0E9
:103F60000700F0E80223804603F0004C5FEA0C00F3
:103F700001D097A009E0200501D596A005E0E00753
:103F800001D095A001E0AFF24C001390307823F0FF
:103F9000004365280CD006DC452809D046281DD0F2
:103FA00047287FD13BE0662818D067287AD136E0D1
:103FB0000021112F01DB112000E0781CCDE9000168
:103FC00004A90CA8FFF7E6FCDDE90D010C9A4FF0FF
:103FD000000B07F10109109200914EE04FF00040F4
:103FE0000097CDE9011004A90CA8FFF7D3FCDDE987
:103FF0000D020C9B0F994FF0000B9146109300920D
:1040000011B9791C00EB0109B7EB090003D4C0F129
:10401000FF3B07F10109A9EB0700019042E0012FE6
:1040200000DA01270021112F01DD112000E03846C0
:10403000CDE9000104A90CA8FFF7ACFCDDE90D01F6
:104040000C9A00914FF0000BB946109221070FD443
:10405000009A4A4503DA914601E0A9F10109B9F154
:10406000010F05DD109AA9F10101515C3029F4D04E
:10407000B84202DA10F1040F03DA0121CDE9011090
:1040800010E0002803DC8344A9EB000102E0411C9E
:10409000494500DD8946A0EB0B00401C01904FF024
:1040A00000400290200705D40198484502DB4FF0FC
:1040B000FF30019000208DF84B0002980DF14B0766
:1040C000B0F1004F25D002200C902B200D900298CB
:1040D00000280CDA404202902D200D9007E00A21C2
:1040E0000298FCF7E3FD3031029007F8011D0C99AE
:1040F000481E0C900029F2DC02980028EFD1791EAE
:104100000D980870307800F0200040F0450007F866
:10411000020D11A8C01BC01D02901398007800B1B9
:10412000012000EB0901019801EBE07102980144C4
:104130000398401A401E0390E00306D453462146DC
:10414000179A039800F05CF805441398007818B1AA
:104150005246179990476D1CE00323D553462146DC
:10416000179A039800F04CF805441BE0BBF1000FD0
:1041700007DB0098584504DD1098179910F80B00DC
:1041800001E0179930205246904701980BF1010B3E
:10419000401E05F10105019004D12E2052461799C9
:1041A00090476D1CB9F10001A9F10109DEDC05E0C1
:1041B00017F8010B5246179990476D1C0299481E3B
:1041C00002900029F4DC53462146179A03989EE694
:1041D0002D0000002B000000200000002DE9F04120
:1041E000044600251E461746880404D405E03946D7
:1041F0002020B0476D1C641EF9D52846BDE8F0812B
:104200002DE9F041044600251E469046C80301D51D
:10421000302700E02027880404D505E041463846D1
:10422000B0476D1C641EF9D52846BDE8F0810A68C8
:10423000531C0B60107070472DE9F04D0546DFF8F8
:10424000388221F000408D4F82B00C46404520DB83
:10425000A0EB080129430BD08949884201DC10D129
:104260007DB102B028462146BDE8F04DFFF769BB9D
:10427000002CC7BF002001468248394602B0BDE885
:10428000F08D0120FFF780FB02B0BDE8F04DFFF795
:104290005DBB7D49884244DA7C498142A1BF7948AF
:1042A0007B4902B0BDE8F08D2A46234610461946E8
:1042B000FCF74DFB8346024676480E460B46062128
:1042C0007844FFF7E9FA5A463346FCF740FB0746C5
:1042D00071488A465A46334604217844FFF7DCFA8F
:1042E0005A463346FCF733FB00224346FCF788FA74
:1042F00002460B4638465146FCF79BFB2A462346AE
:10430000FCF725FB654A664BFCF71EFB2A46234655
:10431000FCF71AFB02B05B4ABDE8F04D5C4BFCF7C2
:1043200013BB002C4FF000024BDA464643462846AA
:104330002146FCF765FA4FF0FF32FCF705FE044614
:10434000024658480D460B4606217844FFF7A4FA6A
:1043500022462B46FCF7FBFA804653488A46224603
:104360002B4604217844FFF797FA22462B46FCF7A8
:10437000EEFA00223346FCF743FA06468B46204607
:10438000294600F09DFD04460D4632465B464046F8
:104390005146FCF74EFB22462B46FCF7D8FA3F4A23
:1043A0003F4BFCF7CEFA22462B46FCF729FA0122B6
:1043B000FCF7CAFD02B03B46BDE8F04D314AFCF7C0
:1043C000C3BA2D4B28462146FCF7BEFA4FF0FF3208
:1043D000FCF7BAFD05460E4600F072FD00270C46BC
:1043E00080463A460B46FCF70BFA82468B463A4625
:1043F000234610461946FCF7AAFA2A463346FCF72C
:10440000A3FA52465B46FCF714FB824627488B46CC
:104410002A46334606217844FFF73EFA2A463346B9
:10442000FCF795FACDE9000121482A4633460421DC
:104430007844FFF731FA2A463346FCF788FA00221F
:104440000D4BFCF7DDF902460B46DDE90001FCF7F8
:10445000F0FA42462346FCF77AFA52465B46FCF7EE
:10446000CFF93A462346FCF7CBF902B00122BDE86A
:10447000F04DFCF769BD00000000F03FFB21094052
:104480000000F07F182D44540000E03F0000603C25
:10449000FB21F93F5C15000072150000075C143326
:1044A00026A6913CD2140000E81400000614000077
:1044B0001C14000038B5174D062214A16868FBF7DC
:1044C00067FE002821D114A1FBF770FE0BE06A46BD
:1044D00012A1FBF78DFE12A00099FEF74BFB0EA177
:1044E0000020FBF763FE0028F1D10098FCF710FBD9
:1044F000104C20606168FCF73FF96FF00201FCF797
:1045000073F9A06069680020087038BDBDC7CBD9B9
:10451000B6C80000500100202C00000025640000F7
:10452000616E676C655F7370656564203D2025640E
:104530000D0A0000B00300202DE9F84F04460D4697
:1045400021F0004000917349814211DC7249884298
:1045500001DC06D12CB120462946BDE8F84FFFF713
:10456000F0B96E48002DCCBF6D496E49BDE8F88F9B
:104570006D49814211DD6D498142D8BF4FF0FF3650
:104580006DDD20462946FFF773F9042808BFFFF7C1
:10459000E3F920462946BDE8F88F6549654F25F0C7
:1045A0000045814233DD6449814219DD00263246EF
:1045B0004FF0804320462946FCF722F980468A4680
:1045C000012220462946FCF7BFFC00223B46FCF7AF
:1045D000B8F942465346FCF72CFA04460D463EE035
:1045E00001260022BA463B4620462946FCF708F938
:1045F00080460F460022534620462946FCF7A1F983
:1046000042463B46FCF715FA04460D4627E04B4967
:1046100081421BDDDFF828A10226002253462046F6
:104620002946FCF794F900223B46FCF7E9F880465E
:104630000F460022534620462946FCF782F942469F
:104640003B46FCF7F6F904460D4608E003262246F1
:104650002B4600203B49FCF7ECF904460D46224668
:104660002B4610461946FCF772F98B4682460246E5
:104670000B46FCF76CF907460246334888460B4662
:1046800006217844FFF708F952465B46FCF75FF9CC
:1046900082462E488B463A46434605217844FFF72A
:1046A000FBF83A464346FCF752F902460B46002E09
:1046B000504659460CDAFCF7A3F822462B46FCF785
:1046C00046F901B022462B46BDE8F04FFCF73CB955
:1046D000FCF796F822462B46FCF739F91C4A7A4437
:1046E00002EBC603D3E90023FCF72BF922462B4645
:1046F000FCF727F9174A7A4402EBC603D3E90023F3
:10470000FCF722F9009A002AB8BF81F00041BDE809
:10471000F88F0000000010440000F07F182D445472
:10472000FB21F93FFB21F9BF0000DC3F0000203EE8
:104730000000F33F0000F03F0000E63F0080034030
:104740000000F83F0000F0BF5212000010120000FD
:10475000AE110000761100002DE9F04D9446CCF129
:10476000000423F000464CEA0404594F46EAD4748E
:104770009A46884621F00042BC4206D8454240EAAB
:10478000050442EAD474BC4204D9BDE8F04D624647
:10479000FFF7DAB8AAF14055A5F17F6555EA0C0498
:1047A0000BD0022404EAAA744A4DDFF82CE144EA53
:1047B000D87452EA000B04D00CE0BDE8F04DFFF7CE
:1047C000BBBE002C14BF012CBDE8F08D022C30D0F4
:1047D000032C32D056EA0C0B0AD0BE4220D1BA428A
:1047E00009D126F0804622F080423346114617E078
:1047F00000291ADB25E0DFF8E4B0FB44002C04BFFD
:10480000DBE90001BDE8F08D012C02BFDBE900010E
:1048100081F00041BDE8F08D022C0AD0032C0CD0B1
:10482000BA4212D1B8F1000F0BDA2A482C49BDE880
:10483000F08D28462B49BDE8F08D28467146BDE82D
:10484000F08D24482849BDE8F08D921B12153C2AB2
:10485000C4BF204F244E10DCBAF1000FBEBF12F1CE
:104860003C0F00273E4608DB6246FCF7E2F821F0E9
:104870000041FFF761FE07460E4694B1012C08BFC8
:1048800086F000460DD0194A194B022C38463146A5
:1048900015D0FCF756F82A46BDE8F04D114BFCF751
:1048A00050B80022134638463146FCF7A9F904BF38
:1048B0000220FFF769F838463146BDE8F08DFCF775
:1048C00040F82A46BDE8F04D064BFCF73DB8000025
:1048D0000000F07F182D4454FB2109C00A1100008C
:1048E000FB21F9BFFB210940FB21F93F075C143391
:1048F00026A6A13C38B5134C032211A16068FBF732
:1049000047FC00281AD110A1FBF750FC0FE06A46C3
:104910000EA1FBF76DFC0098FCF75FF902460B4611
:104920000BA0FEF727F908A10020FBF73FFC0028A9
:10493000EDD1FDF7E5FA61680020087038BD000090
:10494000636D6400500100202C000000256600000B
:104950006E756D203D2025660D0A000010B5FEF72E
:1049600063FBFEF74AFE002010BD000030B41F2894
:1049700017D8002A15D00C4B55245C701C700824E5
:104980009C700324DC7001241C715A71120A9A7104
:10499000D8711972080A587230BC0A211846FEF7FD
:1049A00068B830BC70470000BC07002003460120F7
:1049B00000E05843491EC9B2FBD27047074A55234D
:1049C00053701370052393700623D37010715171C7
:1049D000080A907107211046FEF74BB8BC0700206B
:1049E0002DE9F04F8BB0DFF8D0830622F0A1D8F884
:1049F0000400FBF7CDFB18B198F8010001287CD129
:104A000098F80200DFF8B4B3DFF8B4934FF0000A6F
:104A1000012873D10024EBA10020FBF7C7FB03ADF5
:104A200013E006AAE8A1FBF7E3FB21460698641C05
:104A300045F82100FCF7D1F802460B46E3A0FEF74B
:104A400099F8E0A10020FBF7B1FB0028E9D1039819
:104A5000FCF7C3F802460B46DFA0FEF78BF804987C
:104A6000FCF7BBF802460B46DFA0FEF783F805987B
:104A7000FCF7B3F802460B46DFA0FEF77BF805987B
:104A8000FCF7ABF804460D460498FCF7A6F806467A
:104A90000F460398FCF7A1F832463B46CDE90045A6
:104AA000FCF744FF88F802A0D748BBF80010008844
:104AB000401AFCF73BF8D54E0D460446002233461B
:104AC000FBF745FFD24F00223B46FBF7B2FF002227
:104AD0003B46FBF7AEFFFCF7C3F8C8F808002946D1
:104AE000FD02204600222B46FBF731FF00223B4609
:104AF000FBF79FFF00223B4601E056E1A1E0FBF7F8
:104B000098FF00223B46FBF794FFFCF7A9F8C8F892
:104B10000C00C0480188C0480088081AFCF706F855
:104B20000446002233460A91FBF711FF00223B4660
:104B3000FBF77FFF00223B46FBF77BFFFCF790F87B
:104B4000C8F81000204600222B460A99FBF7FFFE0A
:104B500000223B46FBF76DFF00223B46FBF769FF57
:104B600000223B46FBF765FFFCF77AF8C8F8140013
:104B7000AA480188AA480088081AFBF7D7FF04460C
:104B8000002233460991FBF7E2FE00223B46FBF789
:104B900050FF00223B46FBF74CFFFCF761F8C8F8DA
:104BA0001800204600222B460999FBF7D0FE002270
:104BB0003B46FBF73EFF00223B46FBF73AFF002255
:104BC0003B46FBF736FFFCF74BF8C8F81C0095484E
:104BD000B9F800100088401AFBF7A8FF044600222D
:104BE00033460891FBF7B3FE00223B46FBF721FF5B
:104BF00000223B46FBF71DFFFCF732F8C8F8200007
:104C0000204600222B460899FBF7A1FE00223B46D6
:104C1000FBF70FFF00223B46FBF70BFF00223B4652
:104C2000FBF707FFFCF71CF8C8F824004FF4E1512C
:104C30004FF47A70FEF7E4FA012088F80100FDF7DE
:104C400047F9794E307801287ED198F80000401C51
:104C5000C0B288F8000000FB00F4604380B2FBF7AC
:104C600060FF0746D8F82410FBF78CFD0546204668
:104C7000FBF757FF0790D8F82010FBF783FD044699
:104C8000B9F80000FBF74DFF2146FBF723FD29464D
:104C9000FBF720FDFBF774FF81B264220020FFF7D1
:104CA00065FE3846D8F80C10FBF76CFD04460798F3
:104CB000D8F80810FBF766FD0546BBF80000FBF7C7
:104CC00030FF2946FBF706FD2146FBF703FDFBF706
:104CD00057FF81B264220120FFF748FE3846D8F81A
:104CE0001410FBF74FFD04460798D8F81010FBF797
:104CF00049FD054648480088FBF713FF2946FBF7A6
:104D0000E9FC2146FBF7E6FCFBF73AFF81B264229F
:104D10000220FFF72BFE3846D8F81C10FBF732FDB7
:104D200004460798D8F81810FBF72CFD05463C48B8
:104D30000088FBF7F6FE2946FBF7CCFC2146FBF783
:104D4000C9FCFBF71DFF00E009E081B264220320EB
:104D5000FFF70CFE86F800A034A0FDF70BFF98F8D3
:104D60000000182821D100214FF08040FEF7D2F931
:104D70002C480088A9F8000023480088ABF8000000
:104D8000244801882448018024480188244801805F
:104D9000FDF79EF888F800A0012088F8020088F846
:104DA00001A0D8F8040080F800A00BB0BDE8F08F97
:104DB000BBFAD0B5B1DB0000500100202A01002071
:104DC000280100202C000000256600006E756D2073
:104DD0003D2025660D0A00000D0A446174613120F2
:104DE0003D2025660D0A00004461746132203D209B
:104DF00025660D0A000000004461746133203D20E7
:104E000025660D0A00000000320100200000084065
:104E100000003840340100202C0100203601002021
:104E20002E010020300100202C0000200D0A20520D
:104E3000756E6E696E672E2E2E200D0A0000000022
:104E400038B5174D042214A16868FBF7A1F90028B2
:104E500021D114A1FBF7AAF90BE06A4612A1FBF7D6
:104E6000C7F912A00099FDF785FE0EA10020FBF7FF
:104E70009DF90028F1D10098FBF74AFE0F4C206005
:104E80006168FBF779FC6FF00201FBF7ADFCA060F5
:104E900069680020087038BDCBD9B6C80000000092
:104EA000500100202C00000025640000737065652F
:104EB00064203D2025640D0A00000000A4030020AA
:104EC0002DE9F04106460F46FCF755F8041E0D4645
:104ED00018BF0120284320F00040C0F17F6000F19E
:104EE000E040C00F0ED0301C18BF0120384320F026
:104EF0000040C0F17F6000F1E040C00F04BF01201E
:104F0000FEF742FD20462946BDE8F08138B5134C36
:104F1000042210A16068FBF73BF9002819D110A109
:104F2000FBF744F90CE06A460EA1FBF761F99DF826
:104F300000100EA0FDF71EFE09A10020FBF736F9B8
:104F40000028F0D19DF80000FEF766FB61680020A4
:104F5000087038BDD3EFD2F40000000050010020EB
:104F60002C0000002568687500000000766F6963FA
:104F7000655F6E756D203D20256868750D0A00001F
:104F800038B5134C042210A16068FBF701F9002822
:104F900019D110A1FBF70AF90CE06A460EA1FBF744
:104FA00027F99DF800100EA0FDF7E4FD09A10020EF
:104FB000FBF7FCF80028F0D19DF80000FCF76CFF2F
:104FC00061680020087038BDD2F4C1BF0000000045
:104FD000500100202C0000002568687500000000CA
:104FE000766F6C756D6E5F736574203D2025686803
:104FF000750D0A000000000000000000002F0000F6
:1050000000000700070000147F147F1400242A7F8B
:105010002A1200626408132300364955225000000A
:105020000503000000001C224100000041221C007A
:105030000014083E08140008083E0808000000A0FC
:1050400060000008080808080000606000000020F8
:1050500010080402003E5149453E0000427F4000D6
:10506000004261514946002141454B31001814125C
:105070007F10002745454539003C4A494930000129
:105080007109050300364949493600064949291E78
:1050900000003636000000005636000000081422DA
:1050A00041000014141414140000412214080002DA
:1050B0000151090600324959513E007C1211127CFF
:1050C000007F49494936003E41414122007F41412C
:1050D000221C007F49494941007F09090901003E1E
:1050E0004149497A007F0808087F0000417F41005C
:1050F000002040413F01007F08142241007F4040D2
:105100004040007F020C027F007F0408107F003EB9
:105110004141413E007F09090906003E4151215E9F
:10512000007F091929460046494949310001017F9C
:105130000101003F4040403F001F2040201F003F32
:105140004038403F006314081463000708700807E4
:1051500000615149454300007F41410000552A55F7
:105160002A55000041417F00000402010204004072
:105170004040404000000102040000205454547894
:10518000007F4844443800384444442000384444B4
:10519000487F00385454541800087E090102001852
:1051A000A4A4A47C007F080404780000447D40008F
:1051B000004080847D00007F102844000000417F73
:1051C0004000007C04180478007C0804047800384F
:1051D0004444443800FC242424180018242418FCD7
:1051E000007C0804040800485454542000043F4440
:1051F0004020003C4040207C001C2040201C003C03
:105200004030403C004428102844001CA0A0A07C52
:10521000004464544C44141414141414000000008A
:10522000000000000000000000000000000000F886
:1052300000000000000000333000000000100C06E9
:10524000100C0600000000000000000040C0784084
:10525000C0784000043F04043F040400007088FC50
:1052600008300000001820FF211E0000F008F000A8
:10527000E018000000211C031E211E0000F0088819
:10528000700000001E2123241927211010160E0083
:10529000000000000000000000000000000000E02E
:1052A0001804020000000007182040000002041843
:1052B000E00000000040201807000000404080F09F
:1052C000804040000202010F01020200000000F0D5
:1052D000000000000101011F0101010000000000A9
:1052E0000000000080B0700000000000000000001E
:1052F00000000000000101010101010100000000A7
:10530000000000000030300000000000000000003D
:1053100080601804006018060100000000E010081A
:105320000810E000000F102020100F00001010F8EF
:10533000000000000020203F20200000007008082E
:1053400008887000003028242221300000300888AE
:10535000884830000018202020110E000000C020D6
:1053600010F8000000070424243F240000F80888F7
:10537000880808000019212020110E0000E0108884
:1053800088180000000F112020110E0000380808B6
:10539000C83808000000003F0000000000708808C6
:1053A00008887000001C222121221C0000E0100847
:1053B0000810E0000000312222110F00000000C0A0
:1053C000C00000000000003030000000000000803D
:1053D000000000000000806000000000000080402D
:1053E0002010080000010204081020004040404046
:1053F0004040400004040404040404000008102099
:1054000040800000002010080402010000704808DD
:105410000808F0000000003036010000C030C82845
:10542000E810E0000718272423140B000000C03800
:10543000E0000000203C23020227382008F888887A
:1054400088700000203F202020110E00C030080886
:1054500008083800071820202010080008F808085D
:105460000810E000203F202020100F0008F8888856
:10547000E8081000203F20202320180008F8888822
:10548000E8081000203F200003000000C03008089A
:105490000838000007182020221E020008F8080023
:1054A0000008F808203F210101213F20000808F8EA
:1054B000080800000020203F20200000000008080D
:1054C000F8080800C08080807F00000008F888C0CD
:1054D00028180800203F20012638200008F808007E
:1054E00000000000203F20202020300008F8F800B5
:1054F000F8F80800203F003F003F200008F830C0C7
:105500000008F808203F200007183F00E0100808B6
:105510000810E0000F10202020100F0008F80808E5
:105520000808F000203F210101010000E0100808F8
:105530000810E0000F18242438504F0008F888881D
:1055400088887000203F2000030C302000708808FD
:10555000080838000038202121221C00180808F80B
:10556000080818000000203F2000000008F808008C
:105570000008F808001F202020201F00087888005D
:1055800000C83808000007380E010000F80800F8CD
:105590000008F800033C0700073C03000818688077
:1055A0008068180820302C03032C30200838C800ED
:1055B000C83808000000203F20000000100808083C
:1055C000C83808002038262120201800000000FEDE
:1055D000020202000000007F40404000000C30C08A
:1055E00000000000000000010638C00000020202B6
:1055F000FE000000004040407F0000000000040268
:105600000202040000000000000000000000000092
:105610000000000080808080808080800002020482
:10562000000000000000000000000000000080807A
:10563000808000000019242222223F2008F80080E8
:1056400080000000003F112020110E0000000080AB
:1056500080800000000E112020201100000000803A
:105660008088F800000E112020103F20000080806C
:1056700080800000001F222222221300008080F080
:10568000888888180020203F2020000000008080AB
:1056900080808000006B94949493600008F80080F0
:1056A00080800000203F210000203F20008098984B
:1056B000000000000020203F2020000000000080AB
:1056C0009898000000C08080807F000008F80000EB
:1056D00080808000203F24022D302000000808F840
:1056E000000000000020203F2020000080808080FB
:1056F00080808000203F20003F20003F808000808D
:1057000080800000203F210000203F20000080809A
:1057100080800000001F202020201F00808000804B
:105720008000000080FFA12020110E0000000080FA
:1057300080808000000E112020A0FF8080808000EB
:105740008080800020203F21200001000000808018
:10575000808080000033242424241900008080E00D
:10576000808000000000001F2020000080800000DA
:1057700000808000001F202020103F2080808000BB
:105780000080808000010E300806010080800080CB
:10579000008080800F300C030C300F0000808000F0
:1057A000808080000020312E0E312000808080001B
:1057B0000080808080818E701806010000808080CB
:1057C000808080000021302C222130000000000069
:1057D000807C020200000000003F4040000000000A
:1057E000FF00000000000000FF0000000002027C3B
:1057F000800000000040403F000000000006010162
:10580000020204040000000000000000AA000000E2
:10581000AA080000AA170000AA000000000000006B
:10582000555555555555C53F7D6FEB0312D6D4BF21
:105830005544880E55C1C93F3B8F68B52882A4BF27
:1058400088B20175E0EF493F09F7FD0DE13D023FE8
:105850004B2D8A1C273A03C0C88A599CE52A004070
:1058600059018D1B6C06E6BF82922EB1C5B8B33FBD
:105870004FBB610567ACDD3F182D4454FB21E93F68
:105880009BF681D20B73EF3F182D4454FB21F93F57
:10589000E2652F227F2B7A3C075C143326A6813CDD
:1058A000BDCBF07A8807703C075C143326A6913C88
:1058B000C4EB98999999C9BF711623FEC671BCBFF4
:1058C0006D9A74AFF2B0B3BF9AFDDE522DDEADBF5C
:1058D0002F6C6A2C44B4A2BF0D5555555555D53F74
:1058E000FF8300922449C23F6E204CC5CD45B73F8F
:1058F000513DD0A0660DB13FEB0D76244B7BA93F07
:1059000011DA22E33AAD903F0000000000000000F1
:10591000DDDDDDDDDCBBBBDDDDDDDDDDDDDDDDDDFC
:10592000988888888888888877777777778888883C
:1059300085555556666666666666666666688888D4
:105940008333333222222222222222222228888DCD
:10595000705900080000002040020000E813000811
:10596000985A000840020020000A00007839000818
:1059700045020406082D0102030404063106070847
:1059800009011A80011809FF8080A0908884820B89
:1059900051100CFF40211204081020204040151027
:1059A00060028C1480601822FF148810601D0404AB
:1059B0007E013537404023100C0317048484FC8497
:1059C000842CFE92920321180C2060201F1010409E
:1059D0004444447F041A402139014AFC07192049F4
:1059E000015A3F0869106AFF10195B2A205A1E03EA
:1059F0000C10204090180840301196909091044E61
:105A000098141350304F5E44847E0605512DE0906B
:105A10001808AC371008081890E02D03060C181071
:105A20002C180C06A11117DC05B60372060222051C
:105A30000225011B2F30014A31074A32074A33073A
:105A40004A35074A36074A37074A38073A39074B73
:105A5000313007493F4A313F4A313F4B31340749E2
:105A6000464A31464A31464A31464A31464A32462A
:105A70005339391378011B207F041A86041330022E
:105A80001B208D081A94041A9B041AA2041AA90454
:085A90001AB0043987A23400AA
:0400000508000131BD
:00000001FF
